{"abi":[{"type":"constructor","inputs":[],"stateMutability":"nonpayable"},{"type":"function","name":"addPosition","inputs":[{"name":"ptToken","type":"address","internalType":"address"},{"name":"amount","type":"uint256","internalType":"uint256"},{"name":"maturity","type":"uint256","internalType":"uint256"}],"outputs":[{"name":"positionId","type":"uint256","internalType":"uint256"}],"stateMutability":"nonpayable"},{"type":"function","name":"calculateRedeemableAmount","inputs":[],"outputs":[{"name":"redeemable","type":"uint256","internalType":"uint256"}],"stateMutability":"view"},{"type":"function","name":"getAllMaturities","inputs":[],"outputs":[{"name":"allMaturities","type":"uint256[]","internalType":"uint256[]"}],"stateMutability":"view"},{"type":"function","name":"getMaturedPositions","inputs":[],"outputs":[{"name":"ptTokens","type":"address[]","internalType":"address[]"},{"name":"amounts","type":"uint256[]","internalType":"uint256[]"},{"name":"maturityDates","type":"uint256[]","internalType":"uint256[]"}],"stateMutability":"view"},{"type":"function","name":"getMaturitiesCount","inputs":[],"outputs":[{"name":"count","type":"uint256","internalType":"uint256"}],"stateMutability":"view"},{"type":"function","name":"getPosition","inputs":[{"name":"positionId","type":"uint256","internalType":"uint256"}],"outputs":[{"name":"position","type":"tuple","internalType":"struct YieldLockManager.PTPosition","components":[{"name":"ptToken","type":"address","internalType":"address"},{"name":"amount","type":"uint256","internalType":"uint256"},{"name":"maturity","type":"uint256","internalType":"uint256"},{"name":"redeemed","type":"bool","internalType":"bool"},{"name":"depositedAt","type":"uint256","internalType":"uint256"}]}],"stateMutability":"view"},{"type":"function","name":"getPositionsByMaturity","inputs":[{"name":"maturity","type":"uint256","internalType":"uint256"}],"outputs":[{"name":"positionIds","type":"uint256[]","internalType":"uint256[]"}],"stateMutability":"view"},{"type":"function","name":"getTotalLockedValue","inputs":[],"outputs":[{"name":"total","type":"uint256","internalType":"uint256"}],"stateMutability":"view"},{"type":"function","name":"getTotalPTForMaturity","inputs":[{"name":"maturity","type":"uint256","internalType":"uint256"}],"outputs":[{"name":"amount","type":"uint256","internalType":"uint256"}],"stateMutability":"view"},{"type":"function","name":"getUpcomingMaturities","inputs":[{"name":"daysAhead","type":"uint256","internalType":"uint256"}],"outputs":[{"name":"upcomingMaturities","type":"uint256[]","internalType":"uint256[]"}],"stateMutability":"view"},{"type":"function","name":"markRedeemed","inputs":[{"name":"positionId","type":"uint256","internalType":"uint256"}],"outputs":[],"stateMutability":"nonpayable"},{"type":"function","name":"maturities","inputs":[{"name":"","type":"uint256","internalType":"uint256"}],"outputs":[{"name":"","type":"uint256","internalType":"uint256"}],"stateMutability":"view"},{"type":"function","name":"maturityExists","inputs":[{"name":"","type":"uint256","internalType":"uint256"}],"outputs":[{"name":"","type":"bool","internalType":"bool"}],"stateMutability":"view"},{"type":"function","name":"owner","inputs":[],"outputs":[{"name":"","type":"address","internalType":"address"}],"stateMutability":"view"},{"type":"function","name":"positionCount","inputs":[],"outputs":[{"name":"","type":"uint256","internalType":"uint256"}],"stateMutability":"view"},{"type":"function","name":"positions","inputs":[{"name":"","type":"uint256","internalType":"uint256"}],"outputs":[{"name":"ptToken","type":"address","internalType":"address"},{"name":"amount","type":"uint256","internalType":"uint256"},{"name":"maturity","type":"uint256","internalType":"uint256"},{"name":"redeemed","type":"bool","internalType":"bool"},{"name":"depositedAt","type":"uint256","internalType":"uint256"}],"stateMutability":"view"},{"type":"function","name":"renounceOwnership","inputs":[],"outputs":[],"stateMutability":"nonpayable"},{"type":"function","name":"totalPTByMaturity","inputs":[{"name":"","type":"uint256","internalType":"uint256"}],"outputs":[{"name":"","type":"uint256","internalType":"uint256"}],"stateMutability":"view"},{"type":"function","name":"transferOwnership","inputs":[{"name":"newOwner","type":"address","internalType":"address"}],"outputs":[],"stateMutability":"nonpayable"},{"type":"event","name":"MaturityAdded","inputs":[{"name":"maturity","type":"uint256","indexed":false,"internalType":"uint256"}],"anonymous":false},{"type":"event","name":"OwnershipTransferred","inputs":[{"name":"previousOwner","type":"address","indexed":true,"internalType":"address"},{"name":"newOwner","type":"address","indexed":true,"internalType":"address"}],"anonymous":false},{"type":"event","name":"PositionAdded","inputs":[{"name":"positionId","type":"uint256","indexed":true,"internalType":"uint256"},{"name":"ptToken","type":"address","indexed":true,"internalType":"address"},{"name":"amount","type":"uint256","indexed":false,"internalType":"uint256"},{"name":"maturity","type":"uint256","indexed":false,"internalType":"uint256"}],"anonymous":false},{"type":"event","name":"PositionRedeemed","inputs":[{"name":"positionId","type":"uint256","indexed":true,"internalType":"uint256"},{"name":"timestamp","type":"uint256","indexed":false,"internalType":"uint256"}],"anonymous":false},{"type":"error","name":"OwnableInvalidOwner","inputs":[{"name":"owner","type":"address","internalType":"address"}]},{"type":"error","name":"OwnableUnauthorizedAccount","inputs":[{"name":"account","type":"address","internalType":"address"}]}],"bytecode":{"object":"0x60808060405234610078573315610063575f8054336001600160a01b03198216811783556040519290916001600160a01b0316907f8be0079c531659141344cd1fd0a4f28419497f9722a3daafe3b4186f6b6457e09080a3610f26908161007d8239f35b631e4fbdf760e01b81525f6004820152602490fd5b5f80fdfe604060808152600480361015610013575f80fd5b5f3560e01c9081630eda936e14610be05781631161860914610bba5781632378e04b14610bba57816358213fb414610a35578163715018a6146109de5781637f756cca146109235781638da5cb5b146108fc578163928c91d5146108c457816399fbab8814610865578163a57d6d3114610839578163b7597914146107d3578163cff07fd114610532578163d29986ec14610514578163e7702d05146104f6578163eb02c30114610437578163ef7a5363146103be578163f2fde38b1461033157508063f46234e21461017f5763f70bdba0146100ee575f80fd5b3461017b575f36600319011261017b578051600380548083525f918252602080840194927fc2575a0e9e593c00f959f8c92f12db2869c3395a3b0502d05e2516446f71f85b92915b82821061016457610160868661014e828b0383610e45565b51918291602083526020830190610d12565b0390f35b835487529586019560019384019390910190610136565b5f80fd5b503461017b575f36600319011261017b575f809160028054935b8481106102e657506101aa83610e67565b926101b783519485610e45565b8084526101c381610e67565b6020858101969091601f19013688376101e46101de84610e7f565b93610e7f565b935f905f5b8381106102555750505050835194606086019060608752518091526080860196905f5b81811061023857878903848901528780610160898961022b8e8b610d12565b9184830390850152610d12565b82516001600160a01b03168952978301979183019160010161020c565b805f52600180865289895f2084810154421015806102d7575b61027e575b5050506001016101e9565b91859161029b600195976102ce95878060a01b0390541692610eb1565b52855f52808852808b5f2001546102b2838b610eb1565b52855f528752838a5f2001546102c8828b610eb1565b52610e07565b9290895f610273565b5060ff6003820154161561026e565b805f526001602052825f20828101544210159081610321575b5061030d575b600101610199565b92610319600191610e07565b939050610305565b60ff91506003015416155f6102ff565b90503461017b57602036600319011261017b5761034c610d8e565b90610355610ec5565b6001600160a01b039182169283156103a85750505f54826bffffffffffffffffffffffff60a01b8216175f55167f8be0079c531659141344cd1fd0a4f28419497f9722a3daafe3b4186f6b6457e05f80a3005b905f6024925191631e4fbdf760e01b8352820152fd5b823461017b575f36600319011261017b575f8060028054915b8281106103e8576020848651908152f35b805f52600180602052855f208381015442101580610428575b610410575b50506001016103d7565b0154909360019161042091610de6565b939086610406565b5060ff60038201541615610401565b90503461017b57602036600319011261017b5760a09181355f6080835161045d81610e15565b828152826020820152828582015282606082015201526104806002548210610da4565b5f526001602052805f2081519161049683610e15565b600180861b0382541693848452600183015460208501908152608060028501549284870193845260ff6003870154169560608801961515875201549501948552825195865251602086015251908401525115156060830152516080820152f35b823461017b575f36600319011261017b576020906002549051908152f35b823461017b575f36600319011261017b576020906003549051908152f35b823461017b57606036600319011261017b5761054c610d8e565b90602435916044359061055d610ec5565b6001600160a01b0390811691821561079d5784156107655742811115610722578360025495869261058d84610e07565b60025582519861059c8a610e15565b868a52602099818b80830186815287840190868252606085019a5f8c52600160808701944286528c5f5252895f209551166bffffffffffffffffffffffff60a01b86541617855551600185015551600284015560038301985115159860ff199960ff8b835416911617905551910155815f5260058a5260ff845f20541615610668575b7fe09c1fea8318354f0053fdd68105c144cc6c6989d6518c5934868930d966ed20949550815f528952825f20610656838254610de6565b9055825191825288820152a351908152f35b92509250926003546801000000000000000081101561070f579286928895926106b88660017fe09c1fea8318354f0053fdd68105c144cc6c6989d6518c5934868930d966ed209801600355610d45565b81549060031b9085821b915f19901b1916179055825f5260058b526001855f20918254161790557faf75df89d4609f076fb4cdcabd72c59bf27584d926ff8457a40545cc6da4eb378a8551848152a185945061061f565b604183634e487b7160e01b5f525260245ffd5b835162461bcd60e51b8152602081880152601a60248201527f4d61747572697479206d75737420626520696e206675747572650000000000006044820152606490fd5b835162461bcd60e51b815260208188015260126024820152710416d6f756e74206d757374206265203e20360741b6044820152606490fd5b835162461bcd60e51b8152602081880152601060248201526f24b73b30b634b210282a103a37b5b2b760811b6044820152606490fd5b823461017b575f36600319011261017b575f8091600254925b8381106107fd576020838351908152f35b805f52600180602052825f2060ff60038201541615610821575b50506001016107ec565b0154909260019161083191610de6565b929085610817565b823461017b57602036600319011261017b57602091355f526005825260ff815f20541690519015158152f35b90503461017b57602036600319011261017b5760a09181355f526001602052805f20600180851b038154169260018201549260028301549160ff6003850154169301549381519586526020860152840152151560608301526080820152f35b90503461017b57602036600319011261017b57359060035482101561017b576108ee602092610d45565b90549060031b1c9051908152f35b823461017b575f36600319011261017b575f5490516001600160a01b039091168152602090f35b90503461017b57602090602060031936011261017b57355f915f91600293600254935b8481106109ae575061095790610e7f565b935f925f5b858110610978578751602080825281906101609082018a610d12565b805f52600182528383895f20015414610994575b60010161095c565b936109a681866102c86001948b610eb1565b94905061098c565b805f52600184528286885f200154146109ca575b600101610946565b906109d6600191610e07565b9190506109c2565b3461017b575f36600319011261017b576109f6610ec5565b5f80546001600160a01b0319811682556001600160a01b03167f8be0079c531659141344cd1fd0a4f28419497f9722a3daafe3b4186f6b6457e08280a3005b90503461017b57602091602060031936011261017b57620151808235818102918115918304141715610ba757610a6b9042610de6565b600380549490915f805b878110610b315750610a8690610e7f565b945f925f5b888110610aa7578651602080825281906101609082018b610d12565b610ab081610d45565b42915490881b1c1180610b19575b80610af9575b610ad1575b600101610a8b565b93610af1600191610ae187610d45565b905490891b1c6102c8828c610eb1565b949050610ac9565b50610b0381610d45565b905490871b1c5f52828252865f20541515610ac4565b5083610b2482610d45565b905490881b1c1115610abe565b610b3a81610d45565b42915490871b1c1180610b8f575b80610b6f575b610b5b575b600101610a75565b90610b67600191610e07565b919050610b53565b50610b7981610d45565b905490861b1c5f52868452855f20541515610b4e565b5082610b9a82610d45565b905490871b1c1115610b48565b601183634e487b7160e01b5f525260245ffd5b823461017b57602036600319011261017b5781602092355f528252805f20549051908152f35b823461017b5760208060031936011261017b57823591610bfe610ec5565b610c0b6002548410610da4565b825f526001825260ff6003825f20015416610cde57825f52600182526002815f2001544210610cab57825f5260018252805f2060038101600160ff1982541617905560016002820154910154905f52848352815f208054918203918211610c98577fa19f6cdc4aa0c0a00fe5222392b4e0223f3966430311db711fd9f475bef43a389495505551428152a2005b601186634e487b7160e01b5f525260245ffd5b5162461bcd60e51b81529283015250600f60248201526e139bdd081b585d1d5c9959081e595d608a1b6044820152606490fd5b5162461bcd60e51b81529283015250601060248201526f105b1c9958591e481c995919595b595960821b6044820152606490fd5b9081518082526020808093019301915f5b828110610d31575050505090565b835185529381019392810192600101610d23565b600354811015610d7a5760035f527fc2575a0e9e593c00f959f8c92f12db2869c3395a3b0502d05e2516446f71f85b01905f90565b634e487b7160e01b5f52603260045260245ffd5b600435906001600160a01b038216820361017b57565b15610dab57565b60405162461bcd60e51b8152602060048201526013602482015272125b9d985b1a59081c1bdcda5d1a5bdb881251606a1b6044820152606490fd5b91908201809211610df357565b634e487b7160e01b5f52601160045260245ffd5b5f198114610df35760010190565b60a0810190811067ffffffffffffffff821117610e3157604052565b634e487b7160e01b5f52604160045260245ffd5b90601f8019910116810190811067ffffffffffffffff821117610e3157604052565b67ffffffffffffffff8111610e315760051b60200190565b90610e8982610e67565b610e966040519182610e45565b8281528092610ea7601f1991610e67565b0190602036910137565b8051821015610d7a5760209160051b010190565b5f546001600160a01b03163303610ed857565b60405163118cdaa760e01b8152336004820152602490fdfea26469706673582212208bbb7847751eb19c3166ba41a0514cdc9f2367d2eddba72923aa909741d4041e64736f6c63430008170033","linkReferences":{}},"methodIdentifiers":{"addPosition(address,uint256,uint256)":"cff07fd1","calculateRedeemableAmount()":"ef7a5363","getAllMaturities()":"f70bdba0","getMaturedPositions()":"f46234e2","getMaturitiesCount()":"d29986ec","getPosition(uint256)":"eb02c301","getPositionsByMaturity(uint256)":"7f756cca","getTotalLockedValue()":"b7597914","getTotalPTForMaturity(uint256)":"2378e04b","getUpcomingMaturities(uint256)":"58213fb4","markRedeemed(uint256)":"0eda936e","maturities(uint256)":"928c91d5","maturityExists(uint256)":"a57d6d31","owner()":"8da5cb5b","positionCount()":"e7702d05","positions(uint256)":"99fbab88","renounceOwnership()":"715018a6","totalPTByMaturity(uint256)":"11618609","transferOwnership(address)":"f2fde38b"},"id":40}