{"abi":[{"type":"constructor","inputs":[{"name":"_stETH","type":"address","internalType":"address"},{"name":"_pendleRouter","type":"address","internalType":"address"},{"name":"_pendleMarket","type":"address","internalType":"address"},{"name":"_pendleYT","type":"address","internalType":"address"}],"stateMutability":"nonpayable"},{"type":"receive","stateMutability":"payable"},{"type":"function","name":"DOMAIN_SEPARATOR","inputs":[],"outputs":[{"name":"","type":"bytes32","internalType":"bytes32"}],"stateMutability":"view"},{"type":"function","name":"allowance","inputs":[{"name":"","type":"address","internalType":"address"},{"name":"","type":"address","internalType":"address"}],"outputs":[{"name":"","type":"uint256","internalType":"uint256"}],"stateMutability":"view"},{"type":"function","name":"approve","inputs":[{"name":"spender","type":"address","internalType":"address"},{"name":"amount","type":"uint256","internalType":"uint256"}],"outputs":[{"name":"","type":"bool","internalType":"bool"}],"stateMutability":"nonpayable"},{"type":"function","name":"asset","inputs":[],"outputs":[{"name":"","type":"address","internalType":"contract ERC20"}],"stateMutability":"view"},{"type":"function","name":"balanceOf","inputs":[{"name":"","type":"address","internalType":"address"}],"outputs":[{"name":"","type":"uint256","internalType":"uint256"}],"stateMutability":"view"},{"type":"function","name":"convertToAssets","inputs":[{"name":"shares","type":"uint256","internalType":"uint256"}],"outputs":[{"name":"","type":"uint256","internalType":"uint256"}],"stateMutability":"view"},{"type":"function","name":"convertToShares","inputs":[{"name":"assets","type":"uint256","internalType":"uint256"}],"outputs":[{"name":"","type":"uint256","internalType":"uint256"}],"stateMutability":"view"},{"type":"function","name":"decimals","inputs":[],"outputs":[{"name":"","type":"uint8","internalType":"uint8"}],"stateMutability":"view"},{"type":"function","name":"deposit","inputs":[{"name":"assets","type":"uint256","internalType":"uint256"},{"name":"receiver","type":"address","internalType":"address"}],"outputs":[{"name":"shares","type":"uint256","internalType":"uint256"}],"stateMutability":"nonpayable"},{"type":"function","name":"depositETH","inputs":[],"outputs":[{"name":"shares","type":"uint256","internalType":"uint256"}],"stateMutability":"payable"},{"type":"function","name":"emergencyWithdraw","inputs":[{"name":"token","type":"address","internalType":"address"},{"name":"amount","type":"uint256","internalType":"uint256"}],"outputs":[],"stateMutability":"nonpayable"},{"type":"function","name":"maxDeposit","inputs":[{"name":"","type":"address","internalType":"address"}],"outputs":[{"name":"","type":"uint256","internalType":"uint256"}],"stateMutability":"view"},{"type":"function","name":"maxMint","inputs":[{"name":"","type":"address","internalType":"address"}],"outputs":[{"name":"","type":"uint256","internalType":"uint256"}],"stateMutability":"view"},{"type":"function","name":"maxRedeem","inputs":[{"name":"owner","type":"address","internalType":"address"}],"outputs":[{"name":"","type":"uint256","internalType":"uint256"}],"stateMutability":"view"},{"type":"function","name":"maxWithdraw","inputs":[{"name":"owner","type":"address","internalType":"address"}],"outputs":[{"name":"","type":"uint256","internalType":"uint256"}],"stateMutability":"view"},{"type":"function","name":"minDeposit","inputs":[],"outputs":[{"name":"","type":"uint256","internalType":"uint256"}],"stateMutability":"view"},{"type":"function","name":"mint","inputs":[{"name":"shares","type":"uint256","internalType":"uint256"},{"name":"receiver","type":"address","internalType":"address"}],"outputs":[{"name":"assets","type":"uint256","internalType":"uint256"}],"stateMutability":"nonpayable"},{"type":"function","name":"name","inputs":[],"outputs":[{"name":"","type":"string","internalType":"string"}],"stateMutability":"view"},{"type":"function","name":"nonces","inputs":[{"name":"","type":"address","internalType":"address"}],"outputs":[{"name":"","type":"uint256","internalType":"uint256"}],"stateMutability":"view"},{"type":"function","name":"owner","inputs":[],"outputs":[{"name":"","type":"address","internalType":"address"}],"stateMutability":"view"},{"type":"function","name":"pause","inputs":[],"outputs":[],"stateMutability":"nonpayable"},{"type":"function","name":"paused","inputs":[],"outputs":[{"name":"","type":"bool","internalType":"bool"}],"stateMutability":"view"},{"type":"function","name":"pendleMarket","inputs":[],"outputs":[{"name":"","type":"address","internalType":"address"}],"stateMutability":"view"},{"type":"function","name":"pendleRouter","inputs":[],"outputs":[{"name":"","type":"address","internalType":"contract IPendleRouter"}],"stateMutability":"view"},{"type":"function","name":"pendleYT","inputs":[],"outputs":[{"name":"","type":"address","internalType":"address"}],"stateMutability":"view"},{"type":"function","name":"permit","inputs":[{"name":"owner","type":"address","internalType":"address"},{"name":"spender","type":"address","internalType":"address"},{"name":"value","type":"uint256","internalType":"uint256"},{"name":"deadline","type":"uint256","internalType":"uint256"},{"name":"v","type":"uint8","internalType":"uint8"},{"name":"r","type":"bytes32","internalType":"bytes32"},{"name":"s","type":"bytes32","internalType":"bytes32"}],"outputs":[],"stateMutability":"nonpayable"},{"type":"function","name":"previewDeposit","inputs":[{"name":"assets","type":"uint256","internalType":"uint256"}],"outputs":[{"name":"","type":"uint256","internalType":"uint256"}],"stateMutability":"view"},{"type":"function","name":"previewMint","inputs":[{"name":"shares","type":"uint256","internalType":"uint256"}],"outputs":[{"name":"","type":"uint256","internalType":"uint256"}],"stateMutability":"view"},{"type":"function","name":"previewRedeem","inputs":[{"name":"shares","type":"uint256","internalType":"uint256"}],"outputs":[{"name":"","type":"uint256","internalType":"uint256"}],"stateMutability":"view"},{"type":"function","name":"previewWithdraw","inputs":[{"name":"assets","type":"uint256","internalType":"uint256"}],"outputs":[{"name":"","type":"uint256","internalType":"uint256"}],"stateMutability":"view"},{"type":"function","name":"redeem","inputs":[{"name":"shares","type":"uint256","internalType":"uint256"},{"name":"receiver","type":"address","internalType":"address"},{"name":"owner","type":"address","internalType":"address"}],"outputs":[{"name":"assets","type":"uint256","internalType":"uint256"}],"stateMutability":"nonpayable"},{"type":"function","name":"redeemMaturedPT","inputs":[],"outputs":[],"stateMutability":"nonpayable"},{"type":"function","name":"renounceOwnership","inputs":[],"outputs":[],"stateMutability":"nonpayable"},{"type":"function","name":"slippageBps","inputs":[],"outputs":[{"name":"","type":"uint256","internalType":"uint256"}],"stateMutability":"view"},{"type":"function","name":"stETH","inputs":[],"outputs":[{"name":"","type":"address","internalType":"contract IStETH"}],"stateMutability":"view"},{"type":"function","name":"symbol","inputs":[],"outputs":[{"name":"","type":"string","internalType":"string"}],"stateMutability":"view"},{"type":"function","name":"totalAssets","inputs":[],"outputs":[{"name":"","type":"uint256","internalType":"uint256"}],"stateMutability":"view"},{"type":"function","name":"totalSupply","inputs":[],"outputs":[{"name":"","type":"uint256","internalType":"uint256"}],"stateMutability":"view"},{"type":"function","name":"transfer","inputs":[{"name":"to","type":"address","internalType":"address"},{"name":"amount","type":"uint256","internalType":"uint256"}],"outputs":[{"name":"","type":"bool","internalType":"bool"}],"stateMutability":"nonpayable"},{"type":"function","name":"transferFrom","inputs":[{"name":"from","type":"address","internalType":"address"},{"name":"to","type":"address","internalType":"address"},{"name":"amount","type":"uint256","internalType":"uint256"}],"outputs":[{"name":"","type":"bool","internalType":"bool"}],"stateMutability":"nonpayable"},{"type":"function","name":"transferOwnership","inputs":[{"name":"newOwner","type":"address","internalType":"address"}],"outputs":[],"stateMutability":"nonpayable"},{"type":"function","name":"unpause","inputs":[],"outputs":[],"stateMutability":"nonpayable"},{"type":"function","name":"updateManagers","inputs":[{"name":"_yieldLockManager","type":"address","internalType":"address"},{"name":"_yieldDistributor","type":"address","internalType":"address"}],"outputs":[],"stateMutability":"nonpayable"},{"type":"function","name":"updateMarket","inputs":[{"name":"_market","type":"address","internalType":"address"},{"name":"_yt","type":"address","internalType":"address"}],"outputs":[],"stateMutability":"nonpayable"},{"type":"function","name":"updateMinDeposit","inputs":[{"name":"_minDeposit","type":"uint256","internalType":"uint256"}],"outputs":[],"stateMutability":"nonpayable"},{"type":"function","name":"updateSlippage","inputs":[{"name":"_slippageBps","type":"uint256","internalType":"uint256"}],"outputs":[],"stateMutability":"nonpayable"},{"type":"function","name":"withdraw","inputs":[{"name":"assets","type":"uint256","internalType":"uint256"},{"name":"receiver","type":"address","internalType":"address"},{"name":"owner","type":"address","internalType":"address"}],"outputs":[{"name":"shares","type":"uint256","internalType":"uint256"}],"stateMutability":"nonpayable"},{"type":"function","name":"yieldDistributor","inputs":[],"outputs":[{"name":"","type":"address","internalType":"contract FixedYieldDistributor"}],"stateMutability":"view"},{"type":"function","name":"yieldLockManager","inputs":[],"outputs":[{"name":"","type":"address","internalType":"contract YieldLockManager"}],"stateMutability":"view"},{"type":"event","name":"Approval","inputs":[{"name":"owner","type":"address","indexed":true,"internalType":"address"},{"name":"spender","type":"address","indexed":true,"internalType":"address"},{"name":"amount","type":"uint256","indexed":false,"internalType":"uint256"}],"anonymous":false},{"type":"event","name":"Deposit","inputs":[{"name":"caller","type":"address","indexed":true,"internalType":"address"},{"name":"owner","type":"address","indexed":true,"internalType":"address"},{"name":"assets","type":"uint256","indexed":false,"internalType":"uint256"},{"name":"shares","type":"uint256","indexed":false,"internalType":"uint256"}],"anonymous":false},{"type":"event","name":"Deposited","inputs":[{"name":"user","type":"address","indexed":true,"internalType":"address"},{"name":"ethAmount","type":"uint256","indexed":false,"internalType":"uint256"},{"name":"shares","type":"uint256","indexed":false,"internalType":"uint256"}],"anonymous":false},{"type":"event","name":"ManagersUpdated","inputs":[{"name":"yieldLockManager","type":"address","indexed":false,"internalType":"address"},{"name":"yieldDistributor","type":"address","indexed":false,"internalType":"address"}],"anonymous":false},{"type":"event","name":"MarketUpdated","inputs":[{"name":"market","type":"address","indexed":false,"internalType":"address"},{"name":"yt","type":"address","indexed":false,"internalType":"address"}],"anonymous":false},{"type":"event","name":"MinDepositUpdated","inputs":[{"name":"newMinDeposit","type":"uint256","indexed":false,"internalType":"uint256"}],"anonymous":false},{"type":"event","name":"OwnershipTransferred","inputs":[{"name":"previousOwner","type":"address","indexed":true,"internalType":"address"},{"name":"newOwner","type":"address","indexed":true,"internalType":"address"}],"anonymous":false},{"type":"event","name":"PTRedeemed","inputs":[{"name":"ptAmount","type":"uint256","indexed":false,"internalType":"uint256"},{"name":"stETHReceived","type":"uint256","indexed":false,"internalType":"uint256"}],"anonymous":false},{"type":"event","name":"Paused","inputs":[{"name":"account","type":"address","indexed":false,"internalType":"address"}],"anonymous":false},{"type":"event","name":"SlippageUpdated","inputs":[{"name":"newSlippageBps","type":"uint256","indexed":false,"internalType":"uint256"}],"anonymous":false},{"type":"event","name":"Transfer","inputs":[{"name":"from","type":"address","indexed":true,"internalType":"address"},{"name":"to","type":"address","indexed":true,"internalType":"address"},{"name":"amount","type":"uint256","indexed":false,"internalType":"uint256"}],"anonymous":false},{"type":"event","name":"Unpaused","inputs":[{"name":"account","type":"address","indexed":false,"internalType":"address"}],"anonymous":false},{"type":"event","name":"Withdraw","inputs":[{"name":"caller","type":"address","indexed":true,"internalType":"address"},{"name":"receiver","type":"address","indexed":true,"internalType":"address"},{"name":"owner","type":"address","indexed":true,"internalType":"address"},{"name":"assets","type":"uint256","indexed":false,"internalType":"uint256"},{"name":"shares","type":"uint256","indexed":false,"internalType":"uint256"}],"anonymous":false},{"type":"event","name":"YieldLocked","inputs":[{"name":"ytAmount","type":"uint256","indexed":false,"internalType":"uint256"},{"name":"fixedYield","type":"uint256","indexed":false,"internalType":"uint256"},{"name":"maturity","type":"uint256","indexed":false,"internalType":"uint256"}],"anonymous":false},{"type":"error","name":"EnforcedPause","inputs":[]},{"type":"error","name":"ExpectedPause","inputs":[]},{"type":"error","name":"OwnableInvalidOwner","inputs":[{"name":"owner","type":"address","internalType":"address"}]},{"type":"error","name":"OwnableUnauthorizedAccount","inputs":[{"name":"account","type":"address","internalType":"address"}]},{"type":"error","name":"ReentrancyGuardReentrantCall","inputs":[]},{"type":"error","name":"SafeERC20FailedOperation","inputs":[{"name":"token","type":"address","internalType":"address"}]}],"bytecode":{"object":"0x610140604090808252346200079657608081620053988038038091620000268285620007dc565b83398101031262000796576200003c8162000800565b9160206200004c81840162000800565b936200006860606200006085870162000800565b950162000800565b835190956001600160a01b039283169390916200008581620007ac565b601881527f50656e646c65204669786564205969656c64205661756c74000000000000000082820152855194620000bc86620007ac565b60088652671c199e55985d5b1d60c21b83870152865163313ce56760e01b81526004949084818781865afa908115620007a2575f9162000760575b5083516001600160401b039490858111620005655780620001195f5462000815565b92601f938481116200070f575b508890848311600114620006a7575f926200069b575b50508160011b915f199060031b1c1916175f555b8851908582116200056557819060019a6200016c8c5462000815565b82811162000646575b5088918311600114620005e2575f92620005d6575b50505f19600383901b1c191690891b1788555b6080524660a05287515f905f549181620001b78462000815565b9182825288820194898d821691825f14620005b957505060011462000578575b620001e592500382620007dc565b5190208851858101917f8b73c3c69bb8fe3d512ecc4cf759cc79239f7b179b0ffacaa9a75d522b39400f83528a8201527fc89efdaa54c0f20c7adf612882df0950f5a951637e0307cdcb4c672f298b8bc660608201524660808201523060a082015260a0815260c0810191818310868411176200056557828b528151902060c0528360e05233156200054f57505060065460018060a01b0319973389831617600655895191883391167f8be0079c531659141344cd1fd0a4f28419497f9722a3daafe3b4186f6b6457e05f80a37f9b779b17422d0df92223018b32b4d1fa46e071723d6817e2486d003becc55f00556064600b55662386f26fc10000600c5582156200050e57508516978815620004cb578516988915620004885785168015620004505761010099828b52610120998a5287600954161760095586600a541617600a558651610fa380820190828210858311176200043d57908291620043f5833903905ff08015620004335785168660075416176007558651936113e59081860193868510908511176200042057509084929162003010843981520301905ff0801562000416571690600854161760085551906127bf9283620008518439608051836119f1015260a05183612020015260c05183612046015260e051838181610d6b015281816112f5015281816117e7015261198d01525182818161039201528181610cc101528181610eda015281816115110152611efd0152518181816103d9015281816114e60152611aed0152f35b83513d5f823e3d90fd5b604190634e487b7160e01b5f525260245ffd5b87513d5f823e3d90fd5b604187634e487b7160e01b5f525260245ffd5b875162461bcd60e51b81528086018590526012602482015271496e76616c6964205954206164647265737360701b6044820152606490fd5b875162461bcd60e51b8152808601859052601660248201527f496e76616c6964206d61726b65742061646472657373000000000000000000006044820152606490fd5b875162461bcd60e51b8152808601859052601660248201527f496e76616c696420726f757465722061646472657373000000000000000000006044820152606490fd5b62461bcd60e51b8152858101859052601560248201527f496e76616c6964207374455448206164647265737300000000000000000000006044820152606490fd5b631e4fbdf760e01b82525f60c490910152602490fd5b604188634e487b7160e01b5f525260245ffd5b50505f80528187805f208c5f915b8583106200059f575050620001e59350820101620001d7565b80919294505483858801015201910188908c859362000586565b60ff19168752620001e594151560051b8401019150620001d79050565b015190505f806200018a565b908b9350601f19831691845f52895f20925f5b8b8282106200062f575050841162000616575b505050811b0188556200019d565b01515f1960f88460031b161c191690555f808062000608565b8385015186558f97909501949384019301620005f5565b909192508b5f52885f208380860160051c8201928b871062000691575b9186958f929594930160051c01915b8281106200068257505062000175565b5f81558695508e910162000672565b9250819262000663565b015190505f806200013c565b5f8080528a81209350601f198516905b8b828210620006f8575050908460019594939210620006df575b505050811b015f5562000150565b01515f1960f88460031b161c191690555f8080620006d1565b6001859682939686015181550195019301620006b7565b9091505f8052885f208480850160051c8201928b861062000756575b9085949392910160051c01905b81811062000747575062000126565b5f815584935060010162000738565b925081926200072b565b90508481813d83116200079a575b6200077a8183620007dc565b8101031262000796575160ff8116810362000796575f620000f7565b5f80fd5b503d6200076e565b89513d5f823e3d90fd5b604081019081106001600160401b03821117620007c857604052565b634e487b7160e01b5f52604160045260245ffd5b601f909101601f19168101906001600160401b03821190821017620007c857604052565b51906001600160a01b03821682036200079657565b90600182811c9216801562000845575b60208310146200083157565b634e487b7160e01b5f52602260045260245ffd5b91607f16916200082556fe60406080815260048036101561001e575b5050361561001c575f80fd5b005b5f3560e01c806301e1d11414611d0257806306fdde0314611c5557806307a2d13a146118cc578063095ea7b314611be65780630a28a47714611bc757806315b0d49614611b3a57806318160ddd14611b1c578063206aeab314611ad957806323b872dd14611a15578063313ce567146119d85780633644e515146119bc57806338d52e0f146119795780633f4ba83a14611909578063402d267d14610ca857806341b3d185146118eb5780634cdad506146118cc578063578c71d9146118ae5780635c975abb146118885780636e553f65146117ae57806370a0823114610a22578063715018a6146117535780637bd53477146114475780637ecebe00146114105780638456cb59146113b15780638da5cb5b14611389578063918363281461136157806394bf804d146112c357806395ccea671461128757806395d89b41146111a057806399d9a71f146111785780639a7be4711461112c578063a1929d4414611015578063a38c2c3d14610fed578063a9059cbb14610f7b578063b3d7f6b914610f5c578063b460af9414610e85578063ba08765214610cf0578063c1fe3e4814610cad578063c63d75b614610ca8578063c6e6f59214610989578063ce96cb7714610c70578063d505accf14610a59578063d905777e14610a22578063dd62ed3e146109d7578063ef5a1be0146109af578063ef8b30f714610989578063f2fde38b146108fb578063f6326fb31461034e5763f7e3588e03610010573461034a578160031936011261034a57610255611e32565b61025d611e48565b916102666122cb565b6001600160a01b038281169081156103165784169182156102e65750600980546001600160a01b03199081169092179055600a8054909116909117905591516001600160a01b039283168152911660208201527f5fa65f86c786b40995259cb3b21b2132ebb141e6621c100870ffea2c7188bb809080604081015b0390a1005b606490602087519162461bcd60e51b8352820152600a602482015269125b9d985b1a5908165560b21b6044820152fd5b855162461bcd60e51b8152602081850152600e60248201526d125b9d985b1a59081b585c9ad95d60921b6044820152606490fd5b5f80fd5b50905f36600319011261034a576103636123d9565b61036b61253c565b600c5434106108c457805163a1903eab60e01b81525f838201526020926001600160a01b037f000000000000000000000000000000000000000000000000000000000000000081169291906024908684838134895af19384156108ba575f9461088b575b50831561085557807f000000000000000000000000000000000000000000000000000000000000000016916104058584886125a2565b86519561041187611d56565b5f87525f89880152875161042481611db6565b5f8152888801525f606088015287519661043d88611d86565b818852868a89015281898901525f60608901526080880152600b5461271090810381811161084357808802908882040361084357908a9161049986600a54169a8c519b8c94859463d0f4238560e01b86520490308c8601612408565b03815f885af1968715610718575f97610814575b5082600954169388516336501cf560e21b81528a818881895afa90811561078e575f916107df575b5089518b8189816370c264df60e11b9a8b82525afa9081156107d55788928c8e938d8a945f92610798575b50915f916064949386600754169251988997889663cff07fd160e01b885216908601528b85015260448401525af1801561078e578b96959493928b928b9261075d575b50610553828288600a54166125a2565b825161055e81611d56565b5f81525f89820152835161057181611db6565b5f8152848201525f60608201525f84519961058b8b611d86565b868b528a015284848a01525f60608a0152608089015285600954165f8a6105c786519b8c9687958694633d30392560e21b865230908601612408565b03925af1948515610753575f95610722575b50846105ea918460085416906124be565b816008541690813b1561034a575f9182918a5180948193635465a69160e11b8352898b8401525af18015610718579089939291610709575b50600954169387518095819382525afa9182156106ff575f926106ce575b5061067d937f6544b006e125e69d47d5daf5faa220390edb6768000a75869344ae32045b4d6a9260609287519283528883015286820152a161227e565b906106888233612395565b805134815282848201527f73a19dd210f1a7f902193214c0ee91dd35ee5b4d920cba8d519eca65a7b488ca823392a260015f8051602061276a8339815191525551908152f35b9091508581813d83116106f8575b6106e68183611dd2565b8101031261034a57519061067d610640565b503d6106dc565b85513d5f823e3d90fd5b61071290611da2565b5f610622565b88513d5f823e3d90fd5b9094508881813d831161074c575b61073a8183611dd2565b8101031261034a5751936105ea6105d9565b503d610730565b89513d5f823e3d90fd5b9150968092503d8311610787575b6107758183611dd2565b8101031261034a5788888b965f610543565b503d61076b565b8a513d5f823e3d90fd5b959450505050925081813d83116107ce575b6107b48183611dd2565b8101031261034a575187918c918791908d908d6064610500565b503d6107aa565b8b513d5f823e3d90fd5b90508a81813d831161080d575b6107f68183611dd2565b8101031261034a57610807906121c3565b5f6104d5565b503d6107ec565b9096508881813d831161083c575b61082c8183611dd2565b8101031261034a5751955f6104ad565b503d610822565b83601188634e487b7160e01b5f52525ffd5b855162461bcd60e51b8152808401889052601181840152701cdd115512081b5a5b9d0819985a5b1959607a1b6044820152606490fd5b9093508681813d83116108b3575b6108a38183611dd2565b8101031261034a5751925f6103cf565b503d610899565b86513d5f823e3d90fd5b906020606492519162461bcd60e51b8352820152601160248201527011195c1bdcda5d081d1bdbc81cdb585b1b607a1b6044820152fd5b503461034a57602036600319011261034a57610915611e32565b9061091e6122cb565b6001600160a01b03918216928315610973575050600654826bffffffffffffffffffffffff60a01b821617600655167f8be0079c531659141344cd1fd0a4f28419497f9722a3daafe3b4186f6b6457e05f80a3005b905f6024925191631e4fbdf760e01b8352820152fd5b50903461034a57602036600319011261034a576109a86020923561227e565b9051908152f35b823461034a575f36600319011261034a57600a5490516001600160a01b039091168152602090f35b50903461034a578060031936011261034a576020916109f4611e32565b6109fc611e48565b6001600160a01b039182165f908152928552838320911682528352819020549051908152f35b823461034a57602036600319011261034a576020906001600160a01b03610a47611e32565b165f5260038252805f20549051908152f35b50903461034a5760e036600319011261034a57610a74611e32565b610a7c611e48565b604435606435936084359360ff851680950361034a57428610610c2d57610aa161201d565b9460018060a01b0380921695865f5260209560058752845f209889549960018b01905585519085898301937f6e71edae12b1b97f4d1f60370fef10105fa2faae0126114a169c64845d6126c985528b89850152169a8b606084015288608084015260a083015260c082015260c0815260e081019181831067ffffffffffffffff841117610c1a5792828995926101225f966080968b52825190209161010081019461190160f01b8652610102820152015260428152610b5f81611d56565b5190209086519182528482015260a4358682015260c435606082015282805260015afa15610c10575f51169586151580610c07575b15610bd5577f8c5be1e5ebec7d5bd14f71427d1e84f3dd0314c0f7b2291e5b200ac8c7c3b9259495965f528352805f20865f52835281815f205551908152a3005b83606492519162461bcd60e51b8352820152600e60248201526d24a72b20a624a22fa9a4a3a722a960911b6044820152fd5b50848714610b94565b50513d5f823e3d90fd5b60418c634e487b7160e01b5f525260245ffd5b815162461bcd60e51b8152602081890152601760248201527f5045524d49545f444541444c494e455f455850495245440000000000000000006044820152606490fd5b823461034a57602036600319011261034a576020906001600160a01b03610c95611e32565b165f52600382526109a8815f2054611fd3565b611e5e565b823461034a575f36600319011261034a57517f00000000000000000000000000000000000000000000000000000000000000006001600160a01b03168152602090f35b503461034a57610cff36611e83565b9291906001600160a01b038085169133839003610e3c575b610d2084611fd3565b958615610e0b5784610d319161255d565b16809286519086825260208201527ffbde797d201c681b91056529119e0b02407c7bb96a4a2c75c01fc9667232c8db873392a460205f60447f00000000000000000000000000000000000000000000000000000000000000009387519063a9059cbb60e01b82528682015286602482015282855af19081601f3d1160015f5114161516610dfe575b5015610dc9575060209151908152f35b606490602084519162461bcd60e51b8352820152600f60248201526e1514905394d1915497d19052531151608a1b6044820152fd5b3b153d171590505f610db9565b875162461bcd60e51b8152602081880152600b60248201526a5a45524f5f41535345545360a81b6044820152606490fd5b825f5284602052865f20335f52602052865f2054845f198203610e61575b5050610d17565b610e6a91612010565b835f5285602052875f20335f52602052875f20555f84610e5a565b503461034a57602091610eff610e9a36611e83565b94610ea36123d9565b610eab61253c565b610ed8610eb784611ff1565b966001600160a01b03928891908482169033829003610f16575b505061255d565b7f0000000000000000000000000000000000000000000000000000000000000000166124be565b60015f8051602061276a8339815191525551908152f35b815f52808c52895f20335f528c52895f2054845f198203610f39575b5050610ed1565b610f4291612010565b915f528b52885f20335f528b52885f20555f808084610f32565b50903461034a57602036600319011261034a576109a860209235612260565b823461034a578060031936011261034a57602090610f97611e32565b60243590335f5260038452825f20610fb0838254612010565b90556001600160a01b03165f8181526003855283902080548301905582519182529033905f8051602061274a833981519152908590a35160018152f35b823461034a575f36600319011261034a5760085490516001600160a01b039091168152602090f35b503461034a578160031936011261034a5761102e611e32565b611036611e48565b9161103f6122cb565b6001600160a01b038281169081156110f75784169182156110be5750600780546001600160a01b0319908116909217905560088054909116909117905591516001600160a01b039283168152911660208201527f5e815fc181b7aea5c1aede71c867a5b762feba78f92b41973af440bce79d1db89080604081016102e1565b606490602087519162461bcd60e51b8352820152601360248201527224b73b30b634b2103234b9ba3934b13aba37b960691b6044820152fd5b855162461bcd60e51b8152602081850152600f60248201526e24b73b30b634b21036b0b730b3b2b960891b6044820152606490fd5b503461034a57602036600319011261034a577f96a008f96f1c0ab9fa3d9ddd43cdfc614848c4d054d51f43662ed900e9d094c891602091359061116d6122cb565b81600c5551908152a1005b823461034a575f36600319011261034a5760095490516001600160a01b039091168152602090f35b823461034a575f36600319011261034a578051905f9082600192600154936111c785611d1e565b90818452602095866001821691825f1461126557505060011461120a575b505061120692916111f7910385611dd2565b51928284938452830190611df4565b0390f35b9085925060015f527fb10e2d527612073b26eecdfd717e6a320cf44b4afac2b0732d9fcbe2b7fa0cf6915f925b82841061124d57505050820101816111f76111e5565b8054848a018601528895508794909301928101611237565b60ff19168682015292151560051b850190920192508391506111f790506111e5565b823461034a5736600319011261034a5761001c6112a2611e32565b6112aa6122cb565b600654602435916001600160a01b0391821691166124be565b50903461034a578060031936011261034a5760209135906112e2611e48565b916112ec81612260565b926113198430337f00000000000000000000000000000000000000000000000000000000000000006122f7565b6113238282612395565b8251918483528583015260018060a01b0316907fdcbc1c05240f31ff3ad067ef1ee35ce4997762752e3a095284754544f4c709d7833392a351908152f35b823461034a575f36600319011261034a5760075490516001600160a01b039091168152602090f35b823461034a575f36600319011261034a5760065490516001600160a01b039091168152602090f35b823461034a575f36600319011261034a5760207f62e78cea01bee320cd4e420270b5ea74000d11b0c9f74754ebdbfc544b05a258916113ee6122cb565b6113f661253c565b6006805460ff60a01b1916600160a01b17905551338152a1005b823461034a57602036600319011261034a576020906001600160a01b03611435611e32565b165f5260058252805f20549051908152f35b503461034a575f36600319011261034a576114606123d9565b6114686122cb565b600780548351637a311a7160e11b815292906001600160a01b03905f9085908490829085165afa9283156106ff575f945f94611682575b505f5b855181101561166f576114b58186612238565b516114c3575b6001016114a2565b826114ce8288612238565b5116905f886114dd8389612238565b519361150d85887f00000000000000000000000000000000000000000000000000000000000000001680936125a2565b84877f00000000000000000000000000000000000000000000000000000000000000001691835161153d81611d56565b85815260209586948186840152865161155581611db6565b82815287840152606090828285015287519761157089611d86565b81895283888a015288015286015260808501528c5f8b6115aa8c600a54169351978896879586946323f8ef1160e11b865230908601612408565b03925af190811561078e575f91611642575b508585541693843b1561034a578a915f8560248b8387519a8b94859363076d49b760e11b85528401525af1938415611638576001967f82078b05b301b3adb24b940311fad6340003f591b1486e4ba1c4fd1e8615add095611629575b508351928352820152a190506114bb565b61163290611da2565b5f611618565b83513d5f823e3d90fd5b90508181813d8311611668575b6116598183611dd2565b8101031261034a57515f6115bc565b503d61164f565b60015f8051602061276a83398151915255005b945092503d805f863e6116958186611dd2565b840160608582031261034a5784519467ffffffffffffffff9586811161034a5781019180601f8401121561034a578251926020906116d2856121ab565b946116df8b519687611dd2565b808652828087019160051b8301019184831161034a5783809101915b83831061173b575050505082015187811161034a578161171c9184016121d7565b968883015190811161034a5761173292016121d7565b5093925f61149f565b8190611746846121c3565b81520191019083906116fb565b3461034a575f36600319011261034a5761176b6122cb565b600680546001600160a01b031981169091555f906001600160a01b03167f8be0079c531659141344cd1fd0a4f28419497f9722a3daafe3b4186f6b6457e08280a3005b503461034a578160031936011261034a578035916117ca611e48565b926117d48161227e565b928315611857575060209361180b8230337f00000000000000000000000000000000000000000000000000000000000000006122f7565b6118158482612395565b82519182528482018490526001600160a01b03169033907fdcbc1c05240f31ff3ad067ef1ee35ce4997762752e3a095284754544f4c709d7908490a351908152f35b606490602084519162461bcd60e51b8352820152600b60248201526a5a45524f5f53484152455360a81b6044820152fd5b823461034a575f36600319011261034a5760209060ff60065460a01c1690519015158152f35b823461034a575f36600319011261034a57602090600b549051908152f35b50903461034a57602036600319011261034a576109a860209235611fd3565b823461034a575f36600319011261034a57602090600c549051908152f35b50903461034a575f36600319011261034a576119236122cb565b6006549160ff8360a01c161561196b5760ff60a01b19831660065581513381527f5db9ee0a495bf2e6ff9c91a7834c1ba4fdd244a5e8aa4e537bd38aeae4b073aa90602090a1005b9051638dfc202b60e01b8152fd5b823461034a575f36600319011261034a57517f00000000000000000000000000000000000000000000000000000000000000006001600160a01b03168152602090f35b823461034a575f36600319011261034a576020906109a861201d565b823461034a575f36600319011261034a576020905160ff7f0000000000000000000000000000000000000000000000000000000000000000168152f35b50903461034a57606036600319011261034a57611a30611e32565b91611a39611e48565b6001600160a01b039384165f81815260208481528582203383528152908590205490956044359492935f8051602061274a8339815191529388938760018201611ab6575b505050845f5260038352865f20611a95878254612010565b90551693845f5260038252855f208181540190558551908152a35160018152f35b611abf91612010565b90865f528452875f20335f528452875f20555f8087611a7d565b823461034a575f36600319011261034a57517f00000000000000000000000000000000000000000000000000000000000000006001600160a01b03168152602090f35b823461034a575f36600319011261034a576020906002549051908152f35b503461034a57602036600319011261034a57803590611b576122cb565b6103e88211611b90577ff5a802650e0a86db227cc342f06327d2ca0ff5cf2b12e0084fc5d8a7db2c54fd6020838581600b5551908152a1005b606490602084519162461bcd60e51b835282015260116024820152700a6d8d2e0e0c2ceca40e8dede40d0d2ced607b1b6044820152fd5b50903461034a57602036600319011261034a576109a860209235611ff1565b50903461034a578060031936011261034a57602091611c03611e32565b9060243590335f528452825f209160018060a01b031691825f52845280835f205582519081527f8c5be1e5ebec7d5bd14f71427d1e84f3dd0314c0f7b2291e5b200ac8c7c3b925843392a35160018152f35b823461034a575f36600319011261034a578051905f90825f5492611c7884611d1e565b808352602094600190866001821691825f14611265575050600114611ca957505061120692916111f7910385611dd2565b5f80805286935091907f290decd9548b62a8d60345a988386fc84ba6bc95484008f6362f93160ef3e5635b828410611cea57505050820101816111f76111e5565b8054848a018601528895508794909301928101611cd4565b823461034a575f36600319011261034a576020906109a8611ed9565b90600182811c92168015611d4c575b6020831014611d3857565b634e487b7160e01b5f52602260045260245ffd5b91607f1691611d2d565b6080810190811067ffffffffffffffff821117611d7257604052565b634e487b7160e01b5f52604160045260245ffd5b60a0810190811067ffffffffffffffff821117611d7257604052565b67ffffffffffffffff8111611d7257604052565b6020810190811067ffffffffffffffff821117611d7257604052565b90601f8019910116810190811067ffffffffffffffff821117611d7257604052565b91908251928382525f5b848110611e1e575050825f602080949584010152601f8019910116010190565b602081830181015184830182015201611dfe565b600435906001600160a01b038216820361034a57565b602435906001600160a01b038216820361034a57565b3461034a57602036600319011261034a57611e77611e32565b5060206040515f198152f35b606090600319011261034a57600435906001600160a01b0390602435828116810361034a5791604435908116810361034a5790565b91908201809211611ec557565b634e487b7160e01b5f52601160045260245ffd5b6040516370a0823160e01b815230600482015260206001600160a01b0381836024817f000000000000000000000000000000000000000000000000000000000000000085165afa928315611f99575f93611fa4575b5091816004936007541660405194858092632dd65e4560e21b82525afa918215611f99575f92611f67575b50611f649250611eb8565b90565b90915082813d8311611f92575b611f7e8183611dd2565b8101031261034a57611f649151905f611f59565b503d611f74565b6040513d5f823e3d90fd5b92508183813d8311611fcc575b611fbb8183611dd2565b8101031261034a5791519181611f2e565b503d611fb1565b60025480611fdf575090565b611f6491611feb611ed9565b90612299565b60025480611ffd575090565b90611f649161200a611ed9565b916122ae565b91908203918211611ec557565b467f000000000000000000000000000000000000000000000000000000000000000003612068577f000000000000000000000000000000000000000000000000000000000000000090565b6040515f905f549061207982611d1e565b8082528160209485820194600190876001821691825f1461218d575050600114612134575b506120ab92500382611dd2565b51902090604051908101917f8b73c3c69bb8fe3d512ecc4cf759cc79239f7b179b0ffacaa9a75d522b39400f835260408201527fc89efdaa54c0f20c7adf612882df0950f5a951637e0307cdcb4c672f298b8bc660608201524660808201523060a082015260a0815260c0810181811067ffffffffffffffff821117611d725760405251902090565b5f808052879250907f290decd9548b62a8d60345a988386fc84ba6bc95484008f6362f93160ef3e5635b8583106121755750506120ab93508201015f61209e565b8054838801850152869450889390920191810161215e565b60ff191688526120ab95151560051b85010192505f915061209e9050565b67ffffffffffffffff8111611d725760051b60200190565b51906001600160a01b038216820361034a57565b9080601f8301121561034a578151906020916121f2816121ab565b936122006040519586611dd2565b81855260208086019260051b82010192831161034a57602001905b828210612229575050505090565b8151815290830190830161221b565b805182101561224c5760209160051b010190565b634e487b7160e01b5f52603260045260245ffd5b6002548061226c575090565b611f6491612278611ed9565b906122ae565b6002548061228a575090565b90611f6491612297611ed9565b915b815f1904811182021583021561034a57020490565b815f1904811182021583021561034a570290808204910615150190565b6006546001600160a01b031633036122df57565b60405163118cdaa760e01b8152336004820152602490fd5b6040516323b872dd60e01b81526001600160a01b03928316600482015292909116602483015260448201929092526020905f9060649082855af19081601f3d1160015f5114161516612388575b501561234c57565b60405162461bcd60e51b81526020600482015260146024820152731514905394d1915497d19493d357d1905253115160621b6044820152606490fd5b3b153d171590505f612344565b5f8051602061274a83398151915260205f926123b385600254611eb8565b6002556001600160a01b03168084526003825260408085208054870190555194855293a3565b5f8051602061276a83398151915260028154146123f65760029055565b604051633ee5aeb560e01b8152600490fd5b92608092949160018060a01b039586809216865216602085015260408401528160608401528381511682840152602081015160a08401528360408201511660c08401528360608201511660e084015201519160a0610100830152825160048110156124aa57610120830152602083015116610140820152610180606061249f604085015160806101608601526101a0850190611df4565b930151151591015290565b634e487b7160e01b5f52602160045260245ffd5b60405163a9059cbb60e01b5f9081526001600160a01b039384166004526024949094529260209060448180855af160015f511481161561251d575b836040521561250757505050565b635274afe760e01b835216600482015260249150fd5b600181151661253357813b15153d1516166124f9565b833d5f823e3d90fd5b60ff60065460a01c1661254b57565b60405163d93c066560e01b8152600490fd5b905f8051602061274a83398151915260205f9360018060a01b031692838552600382526040852061258f828254612010565b90558060025403600255604051908152a3565b60408051636eb1769f60e11b8152306004808301919091526001600160a01b0385811660248401529584871695919493919260209182826044818b5afa801561273f575f90612710575b6125f69250611eb8565b82519763095ea7b360e01b94855f52169788875281602452825f604481808a5af160015f5114811615612703575b81855215612638575b505050505050505050565b845f528887525f602452825f604481808a5af160015f51148116156126e4575b818552156126cf575082519788945f5286526024525f60448180875af19260015f51148416156126a8575b5052156126955780808080808061262d565b635274afe760e01b835282015260249150fd5b9092915060018215166126c6579085913b15153d151616915f612683565b853d5f823e3d90fd5b635274afe760e01b8152868101889052602490fd5b60018115166126fa57863b15153d151616612658565b503d5f823e3d90fd5b863b15153d151616612624565b508282813d8311612738575b6127268183611dd2565b8101031261034a576125f691516125ec565b503d61271c565b84513d5f823e3d90fdfeddf252ad1be2c89b69c2b068fc378daa952ba7f163c4a11628f55a4df523b3ef9b779b17422d0df92223018b32b4d1fa46e071723d6817e2486d003becc55f00a2646970667358221220226d4447175ea4875265fd3f20bebfcea79665aaa1cae2681bbb6858853acdd664736f6c6343000817003360a03461014157601f6113e538819003918201601f19168301916001600160401b038311848410176101455780849260209460405283398101031261014157516001600160a01b0380821691829003610141573315610129575f543360018060a01b03198216175f55604051913391167f8be0079c531659141344cd1fd0a4f28419497f9722a3daafe3b4186f6b6457e05f80a360017f9b779b17422d0df92223018b32b4d1fa46e071723d6817e2486d003becc55f005581156100e7575060805260405161128b908161015a82396080518181816103b40152818161041401526108060152f35b62461bcd60e51b815260206004820152601560248201527f496e76616c6964207374455448206164647265737300000000000000000000006044820152606490fd5b604051631e4fbdf760e01b81525f6004820152602490fd5b5f80fd5b634e487b7160e01b5f52604160045260245ffdfe604060808152600480361015610013575f80fd5b5f3560e01c80630cc05b5a14610d5e5780630efd3a5014610d1f5780632843594f14610cfc57806339fc541214610cde5780633cbaa24114610cc057806357ef60cf14610c925780636538ab1d14610c76578063715018a614610c1f5780638da5cb5b14610bf857806395ccea6714610bbb57806397206bd514610b9d578063a8cb4d22146109b8578063ae7c4e92146108f6578063ba56336e146108d8578063bd575ab414610891578063be3a87991461085b578063c17e38ca14610835578063c1fe3e48146107f2578063d63c0db914610744578063e49972a71461071c578063e5e1d27e146105df578063f2fde38b14610553578063fa0b7c991461030b5763fc29c9e914610123575f80fd5b3461030757816003193601126103075780359060243590600654808410156102ce578211610297578183101561026457508161015e91610f30565b61016781611180565b906101748451928361105d565b80825261018081611180565b60209390601f1901845f5b82811061023e575050505f5b8281106101ec575050508251918083018184528251809152818585019301915f5b8281106101c55785850386f35b835180518652808301518684015287015187860152606090940193928101926001016101b8565b806102016101fc60019385610f9a565b610ef7565b5060028851916102108361102d565b80548352848101548984015201548882015261022c8287611198565b526102378186611198565b5001610197565b87516102498161102d565b5f81525f838201525f8982015282828801015201859061018b565b606490602085519162461bcd60e51b8352820152600d60248201526c496e76616c69642072616e676560981b6044820152fd5b606490602085519162461bcd60e51b83528201526011602482015270092dcecc2d8d2c840cadcc840d2dcc8caf607b1b6044820152fd5b845162461bcd60e51b81526020818401526013602482015272092dcecc2d8d2c840e6e8c2e4e840d2dcc8caf606b1b6044820152606490fd5b5f80fd5b509034610307575f366003190112610307577f9b779b17422d0df92223018b32b4d1fa46e071723d6817e2486d003becc55f0090600282541461054457600282556103546111ac565b600254610365600391825490610f30565b908115610508576001805490956001600160a01b0392918316156103f1575091817f9d315883dbfe38532083c1e42c0d10fbf89ad1cabaa0c269f78b3beb892c101d936103d8836020958a54167f00000000000000000000000000000000000000000000000000000000000000006111d7565b6103e3838254610f9a565b90558654169351908152a255005b91936005936005549081156104c5579261041089969392879695610fa7565b925f7f0000000000000000000000000000000000000000000000000000000000000000965b610446575b50505050505050505055005b81548110156104c057808961045b8a93610eae565b905490861b1c1661046d87828b6111d7565b805f527f9d315883dbfe38532083c1e42c0d10fbf89ad1cabaa0c269f78b3beb892c101d6020898152875f206104a48a8254610f9a565b90556104b1898854610f9a565b87558751898152a20187610435565b61043a565b825162461bcd60e51b8152602081870152601860248201527f4e6f207075626c696320676f6f64732070726f6a6563747300000000000000006044820152606490fd5b825162461bcd60e51b815260208187015260166024820152754e6f207969656c6420746f206469737472696275746560501b6044820152606490fd5b51633ee5aeb560e01b81529050fd5b50346103075760203660031901126103075761056d610e98565b906105766111ac565b6001600160a01b039182169283156105c95750505f54826bffffffffffffffffffffffff60a01b8216175f55167f8be0079c531659141344cd1fd0a4f28419497f9722a3daafe3b4186f6b6457e05f80a3005b905f6024925191631e4fbdf760e01b8352820152fd5b5034610307576020366003190112610307576105f9610e98565b906106026111ac565b6001600160a01b0382169283156106d95761061c83610f51565b61069d575060055490600160401b82101561068a5750906106468260016106649401600555610eae565b90919060018060a01b038084549260031b9316831b921b1916179055565b7fffc85553d918ceb9d9cdd6b5250a5bf22c0a1e289e10dab017ae3de813b459845f80a2005b604190634e487b7160e01b5f525260245ffd5b906020606492519162461bcd60e51b8352820152601660248201527550726f6a65637420616c72656164792065786973747360501b6044820152fd5b906020606492519162461bcd60e51b8352820152601760248201527f496e76616c69642070726f6a65637420616464726573730000000000000000006044820152fd5b8234610307575f3660031901126103075760015490516001600160a01b039091168152602090f35b50346103075760203660031901126103075761075e610e98565b6107666111ac565b6001600160a01b03169182156107af57600180546001600160a01b03191684179055827f4a36d3083ede00fefcaeb94bef751fa8936383099baae3b48dae1a21e5a0d9c95f80a2005b906020606492519162461bcd60e51b8352820152601860248201527f496e76616c69642073706c6974746572206164647265737300000000000000006044820152fd5b8234610307575f36600319011261030757517f00000000000000000000000000000000000000000000000000000000000000006001600160a01b03168152602090f35b5090346103075760203660031901126103075761085460209235611092565b9051908152f35b509034610307576020366003190112610307576020916001600160a01b03610881610e98565b165f528252805f20549051908152f35b5034610307576020366003190112610307573590600654821015610307576108ba606092610ef7565b50805491600260018301549201549181519384526020840152820152f35b8234610307575f366003190112610307576020906006549051908152f35b8234610307575f3660031901126103075780519081600554908181526020809101809260055f527f036b6384b5eca791c62761152d0c79bb0604c104a5fb6f4eb0703f3154bb3db0905f5b81811061099b575050508461095791038561105d565b825181815293518185018190528493840192915f5b82811061097b57505050500390f35b83516001600160a01b03168552869550938101939281019260010161096c565b82546001600160a01b031684529284019260019283019201610941565b5090346103075760203660031901126103075781358015610b65576109df81600254610f9a565b6002555f9260065480151580610a97575b5083516109fc8161102d565b8381526020810191428352858201968752600160401b811015610a8457806001610a299201600655610ef7565b939093610a725750946002917f38f90a18586ba2e828b30836bed96d7a055856543240b6e84e2295b3edf5c4fa96518455516001840155519101558151908152426020820152a1005b5f90634e487b7160e01b82525260245ffd5b604184634e487b7160e01b5f525260245ffd5b9094505f90610aa8575b935f6109f0565b5f198501858111610b5257610ad56001610acc610ac484610ef7565b505493610ef7565b50015442610f30565b9081151580610b49575b610aeb575b5050610aa1565b6301e1338085029250906301e1337f1985840401610b365764496cebb8008502928084046127101490151715610b3657610b2f9291610b299161107f565b90610fa7565b5f80610ae4565b601184634e487b7160e01b5f525260245ffd5b50801515610adf565b601183634e487b7160e01b5f525260245ffd5b815162461bcd60e51b815260208185015260126024820152710416d6f756e74206d757374206265203e20360741b6044820152606490fd5b8234610307575f366003190112610307576020906003549051908152f35b82346103075736600319011261030757610bf6610bd6610e98565b610bde6111ac565b5f54602435916001600160a01b0391821691166111d7565b005b8234610307575f366003190112610307575f5490516001600160a01b039091168152602090f35b34610307575f36600319011261030757610c376111ac565b5f80546001600160a01b0319811682556001600160a01b03167f8be0079c531659141344cd1fd0a4f28419497f9722a3daafe3b4186f6b6457e08280a3005b8234610307575f36600319011261030757602090610854610fc5565b823461030757602036600319011261030757602090610cb7610cb2610e98565b610f51565b90519015158152f35b8234610307575f366003190112610307576020906005549051908152f35b8234610307575f366003190112610307576020906002549051908152f35b8234610307575f3660031901126103075760209061085460025460035490610f30565b503461030757602036600319011261030757359060055482101561030757610d48602092610eae565b905491519160018060a01b039160031b1c168152f35b50903461030757602036600319011261030757610d79610e98565b90610d826111ac565b610d8b82610f51565b15610e5d57506001600160a01b0390811691905f5b600580549081831015610bf657839186610db985610eae565b949054600395861b1c1614610dd357505050600101610da0565b91949093925f1992838101908111610b52579061064685610df6610e0394610eae565b9054908a1b1c1691610eae565b8354908115610e4a57500192610e1884610eae565b81939154921b1b19169055557f9167357a3e5cd97b306e23cc20a50eb85a1e22d49b824ded16be89caf1db7b305f80a2005b603190634e487b7160e01b5f525260245ffd5b5162461bcd60e51b81526020818401526016602482015275141c9bda9958dd08191bd95cc81b9bdd08195e1a5cdd60521b6044820152606490fd5b600435906001600160a01b038216820361030757565b600554811015610ee35760055f527f036b6384b5eca791c62761152d0c79bb0604c104a5fb6f4eb0703f3154bb3db001905f90565b634e487b7160e01b5f52603260045260245ffd5b600654811015610ee35760039060065f52027ff652222313e28459528d920b65115c16c04f3efc82aaedc97be59f3f377c0d3f01905f90565b91908203918211610f3d57565b634e487b7160e01b5f52601160045260245ffd5b600554905f5b828110610f65575050505f90565b610f6e81610eae565b905460039190911b1c6001600160a01b0390811690831614610f9257600101610f57565b505050600190565b91908201809211610f3d57565b8115610fb1570490565b634e487b7160e01b5f52601260045260245ffd5b6006549081156110285760058211156110225760055b5f610fe68285610f30565b935b808510610ffe5750610ffb929350610fa7565b90565b90611019600191600261101088610ef7565b50015490610f9a565b94019390610fe8565b81610fdb565b5f9150565b6060810190811067ffffffffffffffff82111761104957604052565b634e487b7160e01b5f52604160045260245ffd5b90601f8019910116810190811067ffffffffffffffff82111761104957604052565b81810292918115918404141715610f3d57565b6006545f92918115611179575f91600a81111561117257600a925b836110b88184610f30565b915b83831061114f576110cb9250610fa7565b92600181116110db575b50505050565b5f199180830190808211610f3d5760016111086101fc85836110ff61111197610ef7565b50015494610f30565b50015490610f30565b918101908111610f3d5761112491610fa7565b9182611131575b806110d5565b611146939450906111419161107f565b610fa7565b905f808061112b565b600191506111689061116084610ef7565b505490610f9a565b91019084906110ba565b80926110ad565b505f925050565b67ffffffffffffffff81116110495760051b60200190565b8051821015610ee35760209160051b010190565b5f546001600160a01b031633036111bf57565b60405163118cdaa760e01b8152336004820152602490fd5b60405163a9059cbb60e01b5f9081526001600160a01b039384166004526024949094529260209060448180855af160015f5114811615611236575b836040521561122057505050565b635274afe760e01b835216600482015260249150fd5b600181151661124c57813b15153d151616611212565b833d5f823e3d90fdfea2646970667358221220ec9085e447f9ce650360a0a6635e8809477d07ca09a625bf5bfe930ad18b2ebb64736f6c6343000817003360808060405234610078573315610063575f8054336001600160a01b03198216811783556040519290916001600160a01b0316907f8be0079c531659141344cd1fd0a4f28419497f9722a3daafe3b4186f6b6457e09080a3610f26908161007d8239f35b631e4fbdf760e01b81525f6004820152602490fd5b5f80fdfe604060808152600480361015610013575f80fd5b5f3560e01c9081630eda936e14610be05781631161860914610bba5781632378e04b14610bba57816358213fb414610a35578163715018a6146109de5781637f756cca146109235781638da5cb5b146108fc578163928c91d5146108c457816399fbab8814610865578163a57d6d3114610839578163b7597914146107d3578163cff07fd114610532578163d29986ec14610514578163e7702d05146104f6578163eb02c30114610437578163ef7a5363146103be578163f2fde38b1461033157508063f46234e21461017f5763f70bdba0146100ee575f80fd5b3461017b575f36600319011261017b578051600380548083525f918252602080840194927fc2575a0e9e593c00f959f8c92f12db2869c3395a3b0502d05e2516446f71f85b92915b82821061016457610160868661014e828b0383610e45565b51918291602083526020830190610d12565b0390f35b835487529586019560019384019390910190610136565b5f80fd5b503461017b575f36600319011261017b575f809160028054935b8481106102e657506101aa83610e67565b926101b783519485610e45565b8084526101c381610e67565b6020858101969091601f19013688376101e46101de84610e7f565b93610e7f565b935f905f5b8381106102555750505050835194606086019060608752518091526080860196905f5b81811061023857878903848901528780610160898961022b8e8b610d12565b9184830390850152610d12565b82516001600160a01b03168952978301979183019160010161020c565b805f52600180865289895f2084810154421015806102d7575b61027e575b5050506001016101e9565b91859161029b600195976102ce95878060a01b0390541692610eb1565b52855f52808852808b5f2001546102b2838b610eb1565b52855f528752838a5f2001546102c8828b610eb1565b52610e07565b9290895f610273565b5060ff6003820154161561026e565b805f526001602052825f20828101544210159081610321575b5061030d575b600101610199565b92610319600191610e07565b939050610305565b60ff91506003015416155f6102ff565b90503461017b57602036600319011261017b5761034c610d8e565b90610355610ec5565b6001600160a01b039182169283156103a85750505f54826bffffffffffffffffffffffff60a01b8216175f55167f8be0079c531659141344cd1fd0a4f28419497f9722a3daafe3b4186f6b6457e05f80a3005b905f6024925191631e4fbdf760e01b8352820152fd5b823461017b575f36600319011261017b575f8060028054915b8281106103e8576020848651908152f35b805f52600180602052855f208381015442101580610428575b610410575b50506001016103d7565b0154909360019161042091610de6565b939086610406565b5060ff60038201541615610401565b90503461017b57602036600319011261017b5760a09181355f6080835161045d81610e15565b828152826020820152828582015282606082015201526104806002548210610da4565b5f526001602052805f2081519161049683610e15565b600180861b0382541693848452600183015460208501908152608060028501549284870193845260ff6003870154169560608801961515875201549501948552825195865251602086015251908401525115156060830152516080820152f35b823461017b575f36600319011261017b576020906002549051908152f35b823461017b575f36600319011261017b576020906003549051908152f35b823461017b57606036600319011261017b5761054c610d8e565b90602435916044359061055d610ec5565b6001600160a01b0390811691821561079d5784156107655742811115610722578360025495869261058d84610e07565b60025582519861059c8a610e15565b868a52602099818b80830186815287840190868252606085019a5f8c52600160808701944286528c5f5252895f209551166bffffffffffffffffffffffff60a01b86541617855551600185015551600284015560038301985115159860ff199960ff8b835416911617905551910155815f5260058a5260ff845f20541615610668575b7fe09c1fea8318354f0053fdd68105c144cc6c6989d6518c5934868930d966ed20949550815f528952825f20610656838254610de6565b9055825191825288820152a351908152f35b92509250926003546801000000000000000081101561070f579286928895926106b88660017fe09c1fea8318354f0053fdd68105c144cc6c6989d6518c5934868930d966ed209801600355610d45565b81549060031b9085821b915f19901b1916179055825f5260058b526001855f20918254161790557faf75df89d4609f076fb4cdcabd72c59bf27584d926ff8457a40545cc6da4eb378a8551848152a185945061061f565b604183634e487b7160e01b5f525260245ffd5b835162461bcd60e51b8152602081880152601a60248201527f4d61747572697479206d75737420626520696e206675747572650000000000006044820152606490fd5b835162461bcd60e51b815260208188015260126024820152710416d6f756e74206d757374206265203e20360741b6044820152606490fd5b835162461bcd60e51b8152602081880152601060248201526f24b73b30b634b210282a103a37b5b2b760811b6044820152606490fd5b823461017b575f36600319011261017b575f8091600254925b8381106107fd576020838351908152f35b805f52600180602052825f2060ff60038201541615610821575b50506001016107ec565b0154909260019161083191610de6565b929085610817565b823461017b57602036600319011261017b57602091355f526005825260ff815f20541690519015158152f35b90503461017b57602036600319011261017b5760a09181355f526001602052805f20600180851b038154169260018201549260028301549160ff6003850154169301549381519586526020860152840152151560608301526080820152f35b90503461017b57602036600319011261017b57359060035482101561017b576108ee602092610d45565b90549060031b1c9051908152f35b823461017b575f36600319011261017b575f5490516001600160a01b039091168152602090f35b90503461017b57602090602060031936011261017b57355f915f91600293600254935b8481106109ae575061095790610e7f565b935f925f5b858110610978578751602080825281906101609082018a610d12565b805f52600182528383895f20015414610994575b60010161095c565b936109a681866102c86001948b610eb1565b94905061098c565b805f52600184528286885f200154146109ca575b600101610946565b906109d6600191610e07565b9190506109c2565b3461017b575f36600319011261017b576109f6610ec5565b5f80546001600160a01b0319811682556001600160a01b03167f8be0079c531659141344cd1fd0a4f28419497f9722a3daafe3b4186f6b6457e08280a3005b90503461017b57602091602060031936011261017b57620151808235818102918115918304141715610ba757610a6b9042610de6565b600380549490915f805b878110610b315750610a8690610e7f565b945f925f5b888110610aa7578651602080825281906101609082018b610d12565b610ab081610d45565b42915490881b1c1180610b19575b80610af9575b610ad1575b600101610a8b565b93610af1600191610ae187610d45565b905490891b1c6102c8828c610eb1565b949050610ac9565b50610b0381610d45565b905490871b1c5f52828252865f20541515610ac4565b5083610b2482610d45565b905490881b1c1115610abe565b610b3a81610d45565b42915490871b1c1180610b8f575b80610b6f575b610b5b575b600101610a75565b90610b67600191610e07565b919050610b53565b50610b7981610d45565b905490861b1c5f52868452855f20541515610b4e565b5082610b9a82610d45565b905490871b1c1115610b48565b601183634e487b7160e01b5f525260245ffd5b823461017b57602036600319011261017b5781602092355f528252805f20549051908152f35b823461017b5760208060031936011261017b57823591610bfe610ec5565b610c0b6002548410610da4565b825f526001825260ff6003825f20015416610cde57825f52600182526002815f2001544210610cab57825f5260018252805f2060038101600160ff1982541617905560016002820154910154905f52848352815f208054918203918211610c98577fa19f6cdc4aa0c0a00fe5222392b4e0223f3966430311db711fd9f475bef43a389495505551428152a2005b601186634e487b7160e01b5f525260245ffd5b5162461bcd60e51b81529283015250600f60248201526e139bdd081b585d1d5c9959081e595d608a1b6044820152606490fd5b5162461bcd60e51b81529283015250601060248201526f105b1c9958591e481c995919595b595960821b6044820152606490fd5b9081518082526020808093019301915f5b828110610d31575050505090565b835185529381019392810192600101610d23565b600354811015610d7a5760035f527fc2575a0e9e593c00f959f8c92f12db2869c3395a3b0502d05e2516446f71f85b01905f90565b634e487b7160e01b5f52603260045260245ffd5b600435906001600160a01b038216820361017b57565b15610dab57565b60405162461bcd60e51b8152602060048201526013602482015272125b9d985b1a59081c1bdcda5d1a5bdb881251606a1b6044820152606490fd5b91908201809211610df357565b634e487b7160e01b5f52601160045260245ffd5b5f198114610df35760010190565b60a0810190811067ffffffffffffffff821117610e3157604052565b634e487b7160e01b5f52604160045260245ffd5b90601f8019910116810190811067ffffffffffffffff821117610e3157604052565b67ffffffffffffffff8111610e315760051b60200190565b90610e8982610e67565b610e966040519182610e45565b8281528092610ea7601f1991610e67565b0190602036910137565b8051821015610d7a5760209160051b010190565b5f546001600160a01b03163303610ed857565b60405163118cdaa760e01b8152336004820152602490fdfea26469706673582212208bbb7847751eb19c3166ba41a0514cdc9f2367d2eddba72923aa909741d4041e64736f6c63430008170033","linkReferences":{}},"methodIdentifiers":{"DOMAIN_SEPARATOR()":"3644e515","allowance(address,address)":"dd62ed3e","approve(address,uint256)":"095ea7b3","asset()":"38d52e0f","balanceOf(address)":"70a08231","convertToAssets(uint256)":"07a2d13a","convertToShares(uint256)":"c6e6f592","decimals()":"313ce567","deposit(uint256,address)":"6e553f65","depositETH()":"f6326fb3","emergencyWithdraw(address,uint256)":"95ccea67","maxDeposit(address)":"402d267d","maxMint(address)":"c63d75b6","maxRedeem(address)":"d905777e","maxWithdraw(address)":"ce96cb77","minDeposit()":"41b3d185","mint(uint256,address)":"94bf804d","name()":"06fdde03","nonces(address)":"7ecebe00","owner()":"8da5cb5b","pause()":"8456cb59","paused()":"5c975abb","pendleMarket()":"99d9a71f","pendleRouter()":"206aeab3","pendleYT()":"ef5a1be0","permit(address,address,uint256,uint256,uint8,bytes32,bytes32)":"d505accf","previewDeposit(uint256)":"ef8b30f7","previewMint(uint256)":"b3d7f6b9","previewRedeem(uint256)":"4cdad506","previewWithdraw(uint256)":"0a28a477","redeem(uint256,address,address)":"ba087652","redeemMaturedPT()":"7bd53477","renounceOwnership()":"715018a6","slippageBps()":"578c71d9","stETH()":"c1fe3e48","symbol()":"95d89b41","totalAssets()":"01e1d114","totalSupply()":"18160ddd","transfer(address,uint256)":"a9059cbb","transferFrom(address,address,uint256)":"23b872dd","transferOwnership(address)":"f2fde38b","unpause()":"3f4ba83a","updateManagers(address,address)":"a1929d44","updateMarket(address,address)":"f7e3588e","updateMinDeposit(uint256)":"9a7be471","updateSlippage(uint256)":"15b0d496","withdraw(uint256,address,address)":"b460af94","yieldDistributor()":"a38c2c3d","yieldLockManager()":"91836328"},"id":39}