{"abi":[{"type":"constructor","inputs":[{"name":"_stETH","type":"address","internalType":"address"}],"stateMutability":"nonpayable"},{"type":"function","name":"addPublicGoodsProject","inputs":[{"name":"project","type":"address","internalType":"address"}],"outputs":[],"stateMutability":"nonpayable"},{"type":"function","name":"distributeToPublicGoods","inputs":[],"outputs":[],"stateMutability":"nonpayable"},{"type":"function","name":"emergencyWithdraw","inputs":[{"name":"token","type":"address","internalType":"address"},{"name":"amount","type":"uint256","internalType":"uint256"}],"outputs":[],"stateMutability":"nonpayable"},{"type":"function","name":"getAllPublicGoodsProjects","inputs":[],"outputs":[{"name":"projects","type":"address[]","internalType":"address[]"}],"stateMutability":"view"},{"type":"function","name":"getAvailableYield","inputs":[],"outputs":[{"name":"available","type":"uint256","internalType":"uint256"}],"stateMutability":"view"},{"type":"function","name":"getFixedYieldRate","inputs":[],"outputs":[{"name":"rate","type":"uint256","internalType":"uint256"}],"stateMutability":"view"},{"type":"function","name":"getPredictedYield","inputs":[{"name":"timeframe","type":"uint256","internalType":"uint256"}],"outputs":[{"name":"predicted","type":"uint256","internalType":"uint256"}],"stateMutability":"view"},{"type":"function","name":"getPublicGoodsProjectsCount","inputs":[],"outputs":[{"name":"count","type":"uint256","internalType":"uint256"}],"stateMutability":"view"},{"type":"function","name":"getYieldHistory","inputs":[{"name":"startIndex","type":"uint256","internalType":"uint256"},{"name":"endIndex","type":"uint256","internalType":"uint256"}],"outputs":[{"name":"events","type":"tuple[]","internalType":"struct FixedYieldDistributor.YieldEvent[]","components":[{"name":"amount","type":"uint256","internalType":"uint256"},{"name":"timestamp","type":"uint256","internalType":"uint256"},{"name":"annualizedRate","type":"uint256","internalType":"uint256"}]}],"stateMutability":"view"},{"type":"function","name":"getYieldHistoryCount","inputs":[],"outputs":[{"name":"count","type":"uint256","internalType":"uint256"}],"stateMutability":"view"},{"type":"function","name":"isPublicGoodsProject","inputs":[{"name":"project","type":"address","internalType":"address"}],"outputs":[{"name":"exists","type":"bool","internalType":"bool"}],"stateMutability":"view"},{"type":"function","name":"octantPaymentSplitter","inputs":[],"outputs":[{"name":"","type":"address","internalType":"address"}],"stateMutability":"view"},{"type":"function","name":"owner","inputs":[],"outputs":[{"name":"","type":"address","internalType":"address"}],"stateMutability":"view"},{"type":"function","name":"publicGoodsAllocations","inputs":[{"name":"","type":"address","internalType":"address"}],"outputs":[{"name":"","type":"uint256","internalType":"uint256"}],"stateMutability":"view"},{"type":"function","name":"publicGoodsProjects","inputs":[{"name":"","type":"uint256","internalType":"uint256"}],"outputs":[{"name":"","type":"address","internalType":"address"}],"stateMutability":"view"},{"type":"function","name":"receiveYield","inputs":[{"name":"amount","type":"uint256","internalType":"uint256"}],"outputs":[],"stateMutability":"nonpayable"},{"type":"function","name":"removePublicGoodsProject","inputs":[{"name":"project","type":"address","internalType":"address"}],"outputs":[],"stateMutability":"nonpayable"},{"type":"function","name":"renounceOwnership","inputs":[],"outputs":[],"stateMutability":"nonpayable"},{"type":"function","name":"setOctantPaymentSplitter","inputs":[{"name":"_splitter","type":"address","internalType":"address"}],"outputs":[],"stateMutability":"nonpayable"},{"type":"function","name":"stETH","inputs":[],"outputs":[{"name":"","type":"address","internalType":"contract IERC20"}],"stateMutability":"view"},{"type":"function","name":"totalYieldCollected","inputs":[],"outputs":[{"name":"","type":"uint256","internalType":"uint256"}],"stateMutability":"view"},{"type":"function","name":"totalYieldDistributed","inputs":[],"outputs":[{"name":"","type":"uint256","internalType":"uint256"}],"stateMutability":"view"},{"type":"function","name":"transferOwnership","inputs":[{"name":"newOwner","type":"address","internalType":"address"}],"outputs":[],"stateMutability":"nonpayable"},{"type":"function","name":"yieldHistory","inputs":[{"name":"","type":"uint256","internalType":"uint256"}],"outputs":[{"name":"amount","type":"uint256","internalType":"uint256"},{"name":"timestamp","type":"uint256","internalType":"uint256"},{"name":"annualizedRate","type":"uint256","internalType":"uint256"}],"stateMutability":"view"},{"type":"event","name":"OctantSplitterUpdated","inputs":[{"name":"newSplitter","type":"address","indexed":true,"internalType":"address"}],"anonymous":false},{"type":"event","name":"OwnershipTransferred","inputs":[{"name":"previousOwner","type":"address","indexed":true,"internalType":"address"},{"name":"newOwner","type":"address","indexed":true,"internalType":"address"}],"anonymous":false},{"type":"event","name":"PublicGoodAdded","inputs":[{"name":"project","type":"address","indexed":true,"internalType":"address"}],"anonymous":false},{"type":"event","name":"PublicGoodRemoved","inputs":[{"name":"project","type":"address","indexed":true,"internalType":"address"}],"anonymous":false},{"type":"event","name":"YieldDistributed","inputs":[{"name":"recipient","type":"address","indexed":true,"internalType":"address"},{"name":"amount","type":"uint256","indexed":false,"internalType":"uint256"}],"anonymous":false},{"type":"event","name":"YieldReceived","inputs":[{"name":"amount","type":"uint256","indexed":false,"internalType":"uint256"},{"name":"timestamp","type":"uint256","indexed":false,"internalType":"uint256"}],"anonymous":false},{"type":"error","name":"OwnableInvalidOwner","inputs":[{"name":"owner","type":"address","internalType":"address"}]},{"type":"error","name":"OwnableUnauthorizedAccount","inputs":[{"name":"account","type":"address","internalType":"address"}]},{"type":"error","name":"ReentrancyGuardReentrantCall","inputs":[]},{"type":"error","name":"SafeERC20FailedOperation","inputs":[{"name":"token","type":"address","internalType":"address"}]}],"bytecode":{"object":"0x60a03461014157601f6113e538819003918201601f19168301916001600160401b038311848410176101455780849260209460405283398101031261014157516001600160a01b0380821691829003610141573315610129575f543360018060a01b03198216175f55604051913391167f8be0079c531659141344cd1fd0a4f28419497f9722a3daafe3b4186f6b6457e05f80a360017f9b779b17422d0df92223018b32b4d1fa46e071723d6817e2486d003becc55f005581156100e7575060805260405161128b908161015a82396080518181816103b40152818161041401526108060152f35b62461bcd60e51b815260206004820152601560248201527f496e76616c6964207374455448206164647265737300000000000000000000006044820152606490fd5b604051631e4fbdf760e01b81525f6004820152602490fd5b5f80fd5b634e487b7160e01b5f52604160045260245ffdfe604060808152600480361015610013575f80fd5b5f3560e01c80630cc05b5a14610d5e5780630efd3a5014610d1f5780632843594f14610cfc57806339fc541214610cde5780633cbaa24114610cc057806357ef60cf14610c925780636538ab1d14610c76578063715018a614610c1f5780638da5cb5b14610bf857806395ccea6714610bbb57806397206bd514610b9d578063a8cb4d22146109b8578063ae7c4e92146108f6578063ba56336e146108d8578063bd575ab414610891578063be3a87991461085b578063c17e38ca14610835578063c1fe3e48146107f2578063d63c0db914610744578063e49972a71461071c578063e5e1d27e146105df578063f2fde38b14610553578063fa0b7c991461030b5763fc29c9e914610123575f80fd5b3461030757816003193601126103075780359060243590600654808410156102ce578211610297578183101561026457508161015e91610f30565b61016781611180565b906101748451928361105d565b80825261018081611180565b60209390601f1901845f5b82811061023e575050505f5b8281106101ec575050508251918083018184528251809152818585019301915f5b8281106101c55785850386f35b835180518652808301518684015287015187860152606090940193928101926001016101b8565b806102016101fc60019385610f9a565b610ef7565b5060028851916102108361102d565b80548352848101548984015201548882015261022c8287611198565b526102378186611198565b5001610197565b87516102498161102d565b5f81525f838201525f8982015282828801015201859061018b565b606490602085519162461bcd60e51b8352820152600d60248201526c496e76616c69642072616e676560981b6044820152fd5b606490602085519162461bcd60e51b83528201526011602482015270092dcecc2d8d2c840cadcc840d2dcc8caf607b1b6044820152fd5b845162461bcd60e51b81526020818401526013602482015272092dcecc2d8d2c840e6e8c2e4e840d2dcc8caf606b1b6044820152606490fd5b5f80fd5b509034610307575f366003190112610307577f9b779b17422d0df92223018b32b4d1fa46e071723d6817e2486d003becc55f0090600282541461054457600282556103546111ac565b600254610365600391825490610f30565b908115610508576001805490956001600160a01b0392918316156103f1575091817f9d315883dbfe38532083c1e42c0d10fbf89ad1cabaa0c269f78b3beb892c101d936103d8836020958a54167f00000000000000000000000000000000000000000000000000000000000000006111d7565b6103e3838254610f9a565b90558654169351908152a255005b91936005936005549081156104c5579261041089969392879695610fa7565b925f7f0000000000000000000000000000000000000000000000000000000000000000965b610446575b50505050505050505055005b81548110156104c057808961045b8a93610eae565b905490861b1c1661046d87828b6111d7565b805f527f9d315883dbfe38532083c1e42c0d10fbf89ad1cabaa0c269f78b3beb892c101d6020898152875f206104a48a8254610f9a565b90556104b1898854610f9a565b87558751898152a20187610435565b61043a565b825162461bcd60e51b8152602081870152601860248201527f4e6f207075626c696320676f6f64732070726f6a6563747300000000000000006044820152606490fd5b825162461bcd60e51b815260208187015260166024820152754e6f207969656c6420746f206469737472696275746560501b6044820152606490fd5b51633ee5aeb560e01b81529050fd5b50346103075760203660031901126103075761056d610e98565b906105766111ac565b6001600160a01b039182169283156105c95750505f54826bffffffffffffffffffffffff60a01b8216175f55167f8be0079c531659141344cd1fd0a4f28419497f9722a3daafe3b4186f6b6457e05f80a3005b905f6024925191631e4fbdf760e01b8352820152fd5b5034610307576020366003190112610307576105f9610e98565b906106026111ac565b6001600160a01b0382169283156106d95761061c83610f51565b61069d575060055490600160401b82101561068a5750906106468260016106649401600555610eae565b90919060018060a01b038084549260031b9316831b921b1916179055565b7fffc85553d918ceb9d9cdd6b5250a5bf22c0a1e289e10dab017ae3de813b459845f80a2005b604190634e487b7160e01b5f525260245ffd5b906020606492519162461bcd60e51b8352820152601660248201527550726f6a65637420616c72656164792065786973747360501b6044820152fd5b906020606492519162461bcd60e51b8352820152601760248201527f496e76616c69642070726f6a65637420616464726573730000000000000000006044820152fd5b8234610307575f3660031901126103075760015490516001600160a01b039091168152602090f35b50346103075760203660031901126103075761075e610e98565b6107666111ac565b6001600160a01b03169182156107af57600180546001600160a01b03191684179055827f4a36d3083ede00fefcaeb94bef751fa8936383099baae3b48dae1a21e5a0d9c95f80a2005b906020606492519162461bcd60e51b8352820152601860248201527f496e76616c69642073706c6974746572206164647265737300000000000000006044820152fd5b8234610307575f36600319011261030757517f00000000000000000000000000000000000000000000000000000000000000006001600160a01b03168152602090f35b5090346103075760203660031901126103075761085460209235611092565b9051908152f35b509034610307576020366003190112610307576020916001600160a01b03610881610e98565b165f528252805f20549051908152f35b5034610307576020366003190112610307573590600654821015610307576108ba606092610ef7565b50805491600260018301549201549181519384526020840152820152f35b8234610307575f366003190112610307576020906006549051908152f35b8234610307575f3660031901126103075780519081600554908181526020809101809260055f527f036b6384b5eca791c62761152d0c79bb0604c104a5fb6f4eb0703f3154bb3db0905f5b81811061099b575050508461095791038561105d565b825181815293518185018190528493840192915f5b82811061097b57505050500390f35b83516001600160a01b03168552869550938101939281019260010161096c565b82546001600160a01b031684529284019260019283019201610941565b5090346103075760203660031901126103075781358015610b65576109df81600254610f9a565b6002555f9260065480151580610a97575b5083516109fc8161102d565b8381526020810191428352858201968752600160401b811015610a8457806001610a299201600655610ef7565b939093610a725750946002917f38f90a18586ba2e828b30836bed96d7a055856543240b6e84e2295b3edf5c4fa96518455516001840155519101558151908152426020820152a1005b5f90634e487b7160e01b82525260245ffd5b604184634e487b7160e01b5f525260245ffd5b9094505f90610aa8575b935f6109f0565b5f198501858111610b5257610ad56001610acc610ac484610ef7565b505493610ef7565b50015442610f30565b9081151580610b49575b610aeb575b5050610aa1565b6301e1338085029250906301e1337f1985840401610b365764496cebb8008502928084046127101490151715610b3657610b2f9291610b299161107f565b90610fa7565b5f80610ae4565b601184634e487b7160e01b5f525260245ffd5b50801515610adf565b601183634e487b7160e01b5f525260245ffd5b815162461bcd60e51b815260208185015260126024820152710416d6f756e74206d757374206265203e20360741b6044820152606490fd5b8234610307575f366003190112610307576020906003549051908152f35b82346103075736600319011261030757610bf6610bd6610e98565b610bde6111ac565b5f54602435916001600160a01b0391821691166111d7565b005b8234610307575f366003190112610307575f5490516001600160a01b039091168152602090f35b34610307575f36600319011261030757610c376111ac565b5f80546001600160a01b0319811682556001600160a01b03167f8be0079c531659141344cd1fd0a4f28419497f9722a3daafe3b4186f6b6457e08280a3005b8234610307575f36600319011261030757602090610854610fc5565b823461030757602036600319011261030757602090610cb7610cb2610e98565b610f51565b90519015158152f35b8234610307575f366003190112610307576020906005549051908152f35b8234610307575f366003190112610307576020906002549051908152f35b8234610307575f3660031901126103075760209061085460025460035490610f30565b503461030757602036600319011261030757359060055482101561030757610d48602092610eae565b905491519160018060a01b039160031b1c168152f35b50903461030757602036600319011261030757610d79610e98565b90610d826111ac565b610d8b82610f51565b15610e5d57506001600160a01b0390811691905f5b600580549081831015610bf657839186610db985610eae565b949054600395861b1c1614610dd357505050600101610da0565b91949093925f1992838101908111610b52579061064685610df6610e0394610eae565b9054908a1b1c1691610eae565b8354908115610e4a57500192610e1884610eae565b81939154921b1b19169055557f9167357a3e5cd97b306e23cc20a50eb85a1e22d49b824ded16be89caf1db7b305f80a2005b603190634e487b7160e01b5f525260245ffd5b5162461bcd60e51b81526020818401526016602482015275141c9bda9958dd08191bd95cc81b9bdd08195e1a5cdd60521b6044820152606490fd5b600435906001600160a01b038216820361030757565b600554811015610ee35760055f527f036b6384b5eca791c62761152d0c79bb0604c104a5fb6f4eb0703f3154bb3db001905f90565b634e487b7160e01b5f52603260045260245ffd5b600654811015610ee35760039060065f52027ff652222313e28459528d920b65115c16c04f3efc82aaedc97be59f3f377c0d3f01905f90565b91908203918211610f3d57565b634e487b7160e01b5f52601160045260245ffd5b600554905f5b828110610f65575050505f90565b610f6e81610eae565b905460039190911b1c6001600160a01b0390811690831614610f9257600101610f57565b505050600190565b91908201809211610f3d57565b8115610fb1570490565b634e487b7160e01b5f52601260045260245ffd5b6006549081156110285760058211156110225760055b5f610fe68285610f30565b935b808510610ffe5750610ffb929350610fa7565b90565b90611019600191600261101088610ef7565b50015490610f9a565b94019390610fe8565b81610fdb565b5f9150565b6060810190811067ffffffffffffffff82111761104957604052565b634e487b7160e01b5f52604160045260245ffd5b90601f8019910116810190811067ffffffffffffffff82111761104957604052565b81810292918115918404141715610f3d57565b6006545f92918115611179575f91600a81111561117257600a925b836110b88184610f30565b915b83831061114f576110cb9250610fa7565b92600181116110db575b50505050565b5f199180830190808211610f3d5760016111086101fc85836110ff61111197610ef7565b50015494610f30565b50015490610f30565b918101908111610f3d5761112491610fa7565b9182611131575b806110d5565b611146939450906111419161107f565b610fa7565b905f808061112b565b600191506111689061116084610ef7565b505490610f9a565b91019084906110ba565b80926110ad565b505f925050565b67ffffffffffffffff81116110495760051b60200190565b8051821015610ee35760209160051b010190565b5f546001600160a01b031633036111bf57565b60405163118cdaa760e01b8152336004820152602490fd5b60405163a9059cbb60e01b5f9081526001600160a01b039384166004526024949094529260209060448180855af160015f5114811615611236575b836040521561122057505050565b635274afe760e01b835216600482015260249150fd5b600181151661124c57813b15153d151616611212565b833d5f823e3d90fdfea2646970667358221220ec9085e447f9ce650360a0a6635e8809477d07ca09a625bf5bfe930ad18b2ebb64736f6c63430008170033","linkReferences":{}},"methodIdentifiers":{"addPublicGoodsProject(address)":"e5e1d27e","distributeToPublicGoods()":"fa0b7c99","emergencyWithdraw(address,uint256)":"95ccea67","getAllPublicGoodsProjects()":"ae7c4e92","getAvailableYield()":"2843594f","getFixedYieldRate()":"6538ab1d","getPredictedYield(uint256)":"c17e38ca","getPublicGoodsProjectsCount()":"3cbaa241","getYieldHistory(uint256,uint256)":"fc29c9e9","getYieldHistoryCount()":"ba56336e","isPublicGoodsProject(address)":"57ef60cf","octantPaymentSplitter()":"e49972a7","owner()":"8da5cb5b","publicGoodsAllocations(address)":"be3a8799","publicGoodsProjects(uint256)":"0efd3a50","receiveYield(uint256)":"a8cb4d22","removePublicGoodsProject(address)":"0cc05b5a","renounceOwnership()":"715018a6","setOctantPaymentSplitter(address)":"d63c0db9","stETH()":"c1fe3e48","totalYieldCollected()":"39fc5412","totalYieldDistributed()":"97206bd5","transferOwnership(address)":"f2fde38b","yieldHistory(uint256)":"bd575ab4"},"id":38}